{
	".learneth/ethereum/remix-workshops/5.3 Functions - Modifiers and Constructors/modifiersAndConstructors.sol": {
		"FunctionModifier": {
			"abi": [
				{
					"inputs": [],
					"stateMutability": "nonpayable",
					"type": "constructor"
				},
				{
					"inputs": [
						{
							"internalType": "address",
							"name": "_newOwner",
							"type": "address"
						}
					],
					"name": "changeOwner",
					"outputs": [],
					"stateMutability": "nonpayable",
					"type": "function"
				},
				{
					"inputs": [
						{
							"internalType": "uint256",
							"name": "i",
							"type": "uint256"
						}
					],
					"name": "decrement",
					"outputs": [],
					"stateMutability": "nonpayable",
					"type": "function"
				},
				{
					"inputs": [
						{
							"internalType": "uint256",
							"name": "_x",
							"type": "uint256"
						}
					],
					"name": "increaseX",
					"outputs": [],
					"stateMutability": "nonpayable",
					"type": "function"
				},
				{
					"inputs": [],
					"name": "locked",
					"outputs": [
						{
							"internalType": "bool",
							"name": "",
							"type": "bool"
						}
					],
					"stateMutability": "view",
					"type": "function"
				},
				{
					"inputs": [],
					"name": "owner",
					"outputs": [
						{
							"internalType": "address",
							"name": "",
							"type": "address"
						}
					],
					"stateMutability": "view",
					"type": "function"
				},
				{
					"inputs": [],
					"name": "x",
					"outputs": [
						{
							"internalType": "uint256",
							"name": "",
							"type": "uint256"
						}
					],
					"stateMutability": "view",
					"type": "function"
				}
			],
			"devdoc": {
				"kind": "dev",
				"methods": {},
				"version": 1
			},
			"evm": {
				"assembly": "    /* \".learneth/ethereum/remix-workshops/5.3 Functions - Modifiers and Constructors/modifiersAndConstructors.sol\":57:1803  contract FunctionModifier {... */\n  mstore(0x40, 0x80)\n    /* \".learneth/ethereum/remix-workshops/5.3 Functions - Modifiers and Constructors/modifiersAndConstructors.sol\":210:212  10 */\n  0x0a\n    /* \".learneth/ethereum/remix-workshops/5.3 Functions - Modifiers and Constructors/modifiersAndConstructors.sol\":194:212  uint public x = 10 */\n  0x01\n  sstore\n    /* \".learneth/ethereum/remix-workshops/5.3 Functions - Modifiers and Constructors/modifiersAndConstructors.sol\":243:360  constructor() {... */\n  callvalue\n  dup1\n  iszero\n  tag_1\n  jumpi\n  0x00\n  dup1\n  revert\ntag_1:\n  pop\n    /* \".learneth/ethereum/remix-workshops/5.3 Functions - Modifiers and Constructors/modifiersAndConstructors.sol\":343:353  msg.sender */\n  caller\n    /* \".learneth/ethereum/remix-workshops/5.3 Functions - Modifiers and Constructors/modifiersAndConstructors.sol\":335:340  owner */\n  0x00\n  dup1\n    /* \".learneth/ethereum/remix-workshops/5.3 Functions - Modifiers and Constructors/modifiersAndConstructors.sol\":335:353  owner = msg.sender */\n  0x0100\n  exp\n  dup2\n  sload\n  dup2\n  0xffffffffffffffffffffffffffffffffffffffff\n  mul\n  not\n  and\n  swap1\n  dup4\n  0xffffffffffffffffffffffffffffffffffffffff\n  and\n  mul\n  or\n  swap1\n  sstore\n  pop\n    /* \".learneth/ethereum/remix-workshops/5.3 Functions - Modifiers and Constructors/modifiersAndConstructors.sol\":57:1803  contract FunctionModifier {... */\n  dataSize(sub_0)\n  dup1\n  dataOffset(sub_0)\n  0x00\n  codecopy\n  0x00\n  return\nstop\n\nsub_0: assembly {\n        /* \".learneth/ethereum/remix-workshops/5.3 Functions - Modifiers and Constructors/modifiersAndConstructors.sol\":57:1803  contract FunctionModifier {... */\n      mstore(0x40, 0x80)\n      callvalue\n      dup1\n      iszero\n      tag_1\n      jumpi\n      0x00\n      dup1\n      revert\n    tag_1:\n      pop\n      jumpi(tag_2, lt(calldatasize, 0x04))\n      shr(0xe0, calldataload(0x00))\n      dup1\n      0x0c55699c\n      eq\n      tag_3\n      jumpi\n      dup1\n      0x3a9ebefd\n      eq\n      tag_4\n      jumpi\n      dup1\n      0x8da5cb5b\n      eq\n      tag_5\n      jumpi\n      dup1\n      0x9758d20d\n      eq\n      tag_6\n      jumpi\n      dup1\n      0xa6f9dae1\n      eq\n      tag_7\n      jumpi\n      dup1\n      0xcf309012\n      eq\n      tag_8\n      jumpi\n    tag_2:\n      0x00\n      dup1\n      revert\n        /* \".learneth/ethereum/remix-workshops/5.3 Functions - Modifiers and Constructors/modifiersAndConstructors.sol\":194:212  uint public x = 10 */\n    tag_3:\n      tag_9\n      tag_10\n      jump\t// in\n    tag_9:\n      mload(0x40)\n      tag_11\n      swap2\n      swap1\n      tag_12\n      jump\t// in\n    tag_11:\n      mload(0x40)\n      dup1\n      swap2\n      sub\n      swap1\n      return\n        /* \".learneth/ethereum/remix-workshops/5.3 Functions - Modifiers and Constructors/modifiersAndConstructors.sol\":1353:1485  function decrement(uint i) public noReentrancy {... */\n    tag_4:\n      tag_13\n      0x04\n      dup1\n      calldatasize\n      sub\n      dup2\n      add\n      swap1\n      tag_14\n      swap2\n      swap1\n      tag_15\n      jump\t// in\n    tag_14:\n      tag_16\n      jump\t// in\n    tag_13:\n      stop\n        /* \".learneth/ethereum/remix-workshops/5.3 Functions - Modifiers and Constructors/modifiersAndConstructors.sol\":168:188  address public owner */\n    tag_5:\n      tag_17\n      tag_18\n      jump\t// in\n    tag_17:\n      mload(0x40)\n      tag_19\n      swap2\n      swap1\n      tag_20\n      jump\t// in\n    tag_19:\n      mload(0x40)\n      dup1\n      swap2\n      sub\n      swap1\n      return\n        /* \".learneth/ethereum/remix-workshops/5.3 Functions - Modifiers and Constructors/modifiersAndConstructors.sol\":1699:1801  function increaseX(uint _x) public onlyOwner greaterThanZero(_x) canOnlyIncreaseX(_x) {... */\n    tag_6:\n      tag_21\n      0x04\n      dup1\n      calldatasize\n      sub\n      dup2\n      add\n      swap1\n      tag_22\n      swap2\n      swap1\n      tag_15\n      jump\t// in\n    tag_22:\n      tag_23\n      jump\t// in\n    tag_21:\n      stop\n        /* \".learneth/ethereum/remix-workshops/5.3 Functions - Modifiers and Constructors/modifiersAndConstructors.sol\":933:1048  function changeOwner(address _newOwner) public onlyOwner validAddress(_newOwner) {... */\n    tag_7:\n      tag_24\n      0x04\n      dup1\n      calldatasize\n      sub\n      dup2\n      add\n      swap1\n      tag_25\n      swap2\n      swap1\n      tag_26\n      jump\t// in\n    tag_25:\n      tag_27\n      jump\t// in\n    tag_24:\n      stop\n        /* \".learneth/ethereum/remix-workshops/5.3 Functions - Modifiers and Constructors/modifiersAndConstructors.sol\":218:236  bool public locked */\n    tag_8:\n      tag_28\n      tag_29\n      jump\t// in\n    tag_28:\n      mload(0x40)\n      tag_30\n      swap2\n      swap1\n      tag_31\n      jump\t// in\n    tag_30:\n      mload(0x40)\n      dup1\n      swap2\n      sub\n      swap1\n      return\n        /* \".learneth/ethereum/remix-workshops/5.3 Functions - Modifiers and Constructors/modifiersAndConstructors.sol\":194:212  uint public x = 10 */\n    tag_10:\n      sload(0x01)\n      dup2\n      jump\t// out\n        /* \".learneth/ethereum/remix-workshops/5.3 Functions - Modifiers and Constructors/modifiersAndConstructors.sol\":1353:1485  function decrement(uint i) public noReentrancy {... */\n    tag_16:\n        /* \".learneth/ethereum/remix-workshops/5.3 Functions - Modifiers and Constructors/modifiersAndConstructors.sol\":1257:1263  locked */\n      0x02\n      0x00\n      swap1\n      sload\n      swap1\n      0x0100\n      exp\n      swap1\n      div\n      0xff\n      and\n        /* \".learneth/ethereum/remix-workshops/5.3 Functions - Modifiers and Constructors/modifiersAndConstructors.sol\":1256:1263  !locked */\n      iszero\n        /* \".learneth/ethereum/remix-workshops/5.3 Functions - Modifiers and Constructors/modifiersAndConstructors.sol\":1248:1281  require(!locked, \"No reentrancy\") */\n      tag_33\n      jumpi\n      mload(0x40)\n      0x08c379a000000000000000000000000000000000000000000000000000000000\n      dup2\n      mstore\n      0x04\n      add\n      tag_34\n      swap1\n      tag_35\n      jump\t// in\n    tag_34:\n      mload(0x40)\n      dup1\n      swap2\n      sub\n      swap1\n      revert\n    tag_33:\n        /* \".learneth/ethereum/remix-workshops/5.3 Functions - Modifiers and Constructors/modifiersAndConstructors.sol\":1301:1305  true */\n      0x01\n        /* \".learneth/ethereum/remix-workshops/5.3 Functions - Modifiers and Constructors/modifiersAndConstructors.sol\":1292:1298  locked */\n      0x02\n      0x00\n        /* \".learneth/ethereum/remix-workshops/5.3 Functions - Modifiers and Constructors/modifiersAndConstructors.sol\":1292:1305  locked = true */\n      0x0100\n      exp\n      dup2\n      sload\n      dup2\n      0xff\n      mul\n      not\n      and\n      swap1\n      dup4\n      iszero\n      iszero\n      mul\n      or\n      swap1\n      sstore\n      pop\n        /* \".learneth/ethereum/remix-workshops/5.3 Functions - Modifiers and Constructors/modifiersAndConstructors.sol\":1415:1416  i */\n      dup1\n        /* \".learneth/ethereum/remix-workshops/5.3 Functions - Modifiers and Constructors/modifiersAndConstructors.sol\":1410:1411  x */\n      0x01\n      0x00\n        /* \".learneth/ethereum/remix-workshops/5.3 Functions - Modifiers and Constructors/modifiersAndConstructors.sol\":1410:1416  x -= i */\n      dup3\n      dup3\n      sload\n      tag_37\n      swap2\n      swap1\n      tag_38\n      jump\t// in\n    tag_37:\n      swap3\n      pop\n      pop\n      dup2\n      swap1\n      sstore\n      pop\n        /* \".learneth/ethereum/remix-workshops/5.3 Functions - Modifiers and Constructors/modifiersAndConstructors.sol\":1435:1436  1 */\n      0x01\n        /* \".learneth/ethereum/remix-workshops/5.3 Functions - Modifiers and Constructors/modifiersAndConstructors.sol\":1431:1432  i */\n      dup2\n        /* \".learneth/ethereum/remix-workshops/5.3 Functions - Modifiers and Constructors/modifiersAndConstructors.sol\":1431:1436  i > 1 */\n      gt\n        /* \".learneth/ethereum/remix-workshops/5.3 Functions - Modifiers and Constructors/modifiersAndConstructors.sol\":1427:1479  if (i > 1) {... */\n      iszero\n      tag_39\n      jumpi\n        /* \".learneth/ethereum/remix-workshops/5.3 Functions - Modifiers and Constructors/modifiersAndConstructors.sol\":1452:1468  decrement(i - 1) */\n      tag_40\n        /* \".learneth/ethereum/remix-workshops/5.3 Functions - Modifiers and Constructors/modifiersAndConstructors.sol\":1466:1467  1 */\n      0x01\n        /* \".learneth/ethereum/remix-workshops/5.3 Functions - Modifiers and Constructors/modifiersAndConstructors.sol\":1462:1463  i */\n      dup3\n        /* \".learneth/ethereum/remix-workshops/5.3 Functions - Modifiers and Constructors/modifiersAndConstructors.sol\":1462:1467  i - 1 */\n      tag_41\n      swap2\n      swap1\n      tag_38\n      jump\t// in\n    tag_41:\n        /* \".learneth/ethereum/remix-workshops/5.3 Functions - Modifiers and Constructors/modifiersAndConstructors.sol\":1452:1461  decrement */\n      tag_16\n        /* \".learneth/ethereum/remix-workshops/5.3 Functions - Modifiers and Constructors/modifiersAndConstructors.sol\":1452:1468  decrement(i - 1) */\n      jump\t// in\n    tag_40:\n        /* \".learneth/ethereum/remix-workshops/5.3 Functions - Modifiers and Constructors/modifiersAndConstructors.sol\":1427:1479  if (i > 1) {... */\n    tag_39:\n        /* \".learneth/ethereum/remix-workshops/5.3 Functions - Modifiers and Constructors/modifiersAndConstructors.sol\":1335:1340  false */\n      0x00\n        /* \".learneth/ethereum/remix-workshops/5.3 Functions - Modifiers and Constructors/modifiersAndConstructors.sol\":1326:1332  locked */\n      0x02\n      0x00\n        /* \".learneth/ethereum/remix-workshops/5.3 Functions - Modifiers and Constructors/modifiersAndConstructors.sol\":1326:1340  locked = false */\n      0x0100\n      exp\n      dup2\n      sload\n      dup2\n      0xff\n      mul\n      not\n      and\n      swap1\n      dup4\n      iszero\n      iszero\n      mul\n      or\n      swap1\n      sstore\n      pop\n        /* \".learneth/ethereum/remix-workshops/5.3 Functions - Modifiers and Constructors/modifiersAndConstructors.sol\":1353:1485  function decrement(uint i) public noReentrancy {... */\n      pop\n      jump\t// out\n        /* \".learneth/ethereum/remix-workshops/5.3 Functions - Modifiers and Constructors/modifiersAndConstructors.sol\":168:188  address public owner */\n    tag_18:\n      0x00\n      dup1\n      sload\n      swap1\n      0x0100\n      exp\n      swap1\n      div\n      0xffffffffffffffffffffffffffffffffffffffff\n      and\n      dup2\n      jump\t// out\n        /* \".learneth/ethereum/remix-workshops/5.3 Functions - Modifiers and Constructors/modifiersAndConstructors.sol\":1699:1801  function increaseX(uint _x) public onlyOwner greaterThanZero(_x) canOnlyIncreaseX(_x) {... */\n    tag_23:\n        /* \".learneth/ethereum/remix-workshops/5.3 Functions - Modifiers and Constructors/modifiersAndConstructors.sol\":497:502  owner */\n      0x00\n      dup1\n      sload\n      swap1\n      0x0100\n      exp\n      swap1\n      div\n      0xffffffffffffffffffffffffffffffffffffffff\n      and\n        /* \".learneth/ethereum/remix-workshops/5.3 Functions - Modifiers and Constructors/modifiersAndConstructors.sol\":483:502  msg.sender == owner */\n      0xffffffffffffffffffffffffffffffffffffffff\n      and\n        /* \".learneth/ethereum/remix-workshops/5.3 Functions - Modifiers and Constructors/modifiersAndConstructors.sol\":483:493  msg.sender */\n      caller\n        /* \".learneth/ethereum/remix-workshops/5.3 Functions - Modifiers and Constructors/modifiersAndConstructors.sol\":483:502  msg.sender == owner */\n      0xffffffffffffffffffffffffffffffffffffffff\n      and\n      eq\n        /* \".learneth/ethereum/remix-workshops/5.3 Functions - Modifiers and Constructors/modifiersAndConstructors.sol\":475:516  require(msg.sender == owner, \"Not owner\") */\n      tag_43\n      jumpi\n      mload(0x40)\n      0x08c379a000000000000000000000000000000000000000000000000000000000\n      dup2\n      mstore\n      0x04\n      add\n      tag_44\n      swap1\n      tag_45\n      jump\t// in\n    tag_44:\n      mload(0x40)\n      dup1\n      swap2\n      sub\n      swap1\n      revert\n    tag_43:\n        /* \".learneth/ethereum/remix-workshops/5.3 Functions - Modifiers and Constructors/modifiersAndConstructors.sol\":1760:1762  _x */\n      dup1\n        /* \".learneth/ethereum/remix-workshops/5.3 Functions - Modifiers and Constructors/modifiersAndConstructors.sol\":1548:1549  0 */\n      0x00\n        /* \".learneth/ethereum/remix-workshops/5.3 Functions - Modifiers and Constructors/modifiersAndConstructors.sol\":1543:1545  _x */\n      dup2\n        /* \".learneth/ethereum/remix-workshops/5.3 Functions - Modifiers and Constructors/modifiersAndConstructors.sol\":1543:1549  _x > 0 */\n      gt\n        /* \".learneth/ethereum/remix-workshops/5.3 Functions - Modifiers and Constructors/modifiersAndConstructors.sol\":1535:1596  require(_x > 0, \"Input is negative. X can not be increased.\") */\n      tag_47\n      jumpi\n      mload(0x40)\n      0x08c379a000000000000000000000000000000000000000000000000000000000\n      dup2\n      mstore\n      0x04\n      add\n      tag_48\n      swap1\n      tag_49\n      jump\t// in\n    tag_48:\n      mload(0x40)\n      dup1\n      swap2\n      sub\n      swap1\n      revert\n    tag_47:\n        /* \".learneth/ethereum/remix-workshops/5.3 Functions - Modifiers and Constructors/modifiersAndConstructors.sol\":1781:1783  _x */\n      dup2\n        /* \".learneth/ethereum/remix-workshops/5.3 Functions - Modifiers and Constructors/modifiersAndConstructors.sol\":1673:1675  _x */\n      dup1\n        /* \".learneth/ethereum/remix-workshops/5.3 Functions - Modifiers and Constructors/modifiersAndConstructors.sol\":1669:1670  x */\n      sload(0x01)\n        /* \".learneth/ethereum/remix-workshops/5.3 Functions - Modifiers and Constructors/modifiersAndConstructors.sol\":1669:1675  x + _x */\n      tag_51\n      swap2\n      swap1\n      tag_52\n      jump\t// in\n    tag_51:\n        /* \".learneth/ethereum/remix-workshops/5.3 Functions - Modifiers and Constructors/modifiersAndConstructors.sol\":1665:1666  x */\n      0x01\n        /* \".learneth/ethereum/remix-workshops/5.3 Functions - Modifiers and Constructors/modifiersAndConstructors.sol\":1665:1675  x = x + _x */\n      dup2\n      swap1\n      sstore\n      pop\n        /* \".learneth/ethereum/remix-workshops/5.3 Functions - Modifiers and Constructors/modifiersAndConstructors.sol\":1606:1607  _ */\n      pop\n        /* \".learneth/ethereum/remix-workshops/5.3 Functions - Modifiers and Constructors/modifiersAndConstructors.sol\":685:686  _ */\n      pop\n        /* \".learneth/ethereum/remix-workshops/5.3 Functions - Modifiers and Constructors/modifiersAndConstructors.sol\":1699:1801  function increaseX(uint _x) public onlyOwner greaterThanZero(_x) canOnlyIncreaseX(_x) {... */\n      pop\n      jump\t// out\n        /* \".learneth/ethereum/remix-workshops/5.3 Functions - Modifiers and Constructors/modifiersAndConstructors.sol\":933:1048  function changeOwner(address _newOwner) public onlyOwner validAddress(_newOwner) {... */\n    tag_27:\n        /* \".learneth/ethereum/remix-workshops/5.3 Functions - Modifiers and Constructors/modifiersAndConstructors.sol\":497:502  owner */\n      0x00\n      dup1\n      sload\n      swap1\n      0x0100\n      exp\n      swap1\n      div\n      0xffffffffffffffffffffffffffffffffffffffff\n      and\n        /* \".learneth/ethereum/remix-workshops/5.3 Functions - Modifiers and Constructors/modifiersAndConstructors.sol\":483:502  msg.sender == owner */\n      0xffffffffffffffffffffffffffffffffffffffff\n      and\n        /* \".learneth/ethereum/remix-workshops/5.3 Functions - Modifiers and Constructors/modifiersAndConstructors.sol\":483:493  msg.sender */\n      caller\n        /* \".learneth/ethereum/remix-workshops/5.3 Functions - Modifiers and Constructors/modifiersAndConstructors.sol\":483:502  msg.sender == owner */\n      0xffffffffffffffffffffffffffffffffffffffff\n      and\n      eq\n        /* \".learneth/ethereum/remix-workshops/5.3 Functions - Modifiers and Constructors/modifiersAndConstructors.sol\":475:516  require(msg.sender == owner, \"Not owner\") */\n      tag_55\n      jumpi\n      mload(0x40)\n      0x08c379a000000000000000000000000000000000000000000000000000000000\n      dup2\n      mstore\n      0x04\n      add\n      tag_56\n      swap1\n      tag_45\n      jump\t// in\n    tag_56:\n      mload(0x40)\n      dup1\n      swap2\n      sub\n      swap1\n      revert\n    tag_55:\n        /* \".learneth/ethereum/remix-workshops/5.3 Functions - Modifiers and Constructors/modifiersAndConstructors.sol\":1003:1012  _newOwner */\n      dup1\n        /* \".learneth/ethereum/remix-workshops/5.3 Functions - Modifiers and Constructors/modifiersAndConstructors.sol\":885:886  0 */\n      0x00\n        /* \".learneth/ethereum/remix-workshops/5.3 Functions - Modifiers and Constructors/modifiersAndConstructors.sol\":868:887  _addr != address(0) */\n      0xffffffffffffffffffffffffffffffffffffffff\n      and\n        /* \".learneth/ethereum/remix-workshops/5.3 Functions - Modifiers and Constructors/modifiersAndConstructors.sol\":868:873  _addr */\n      dup2\n        /* \".learneth/ethereum/remix-workshops/5.3 Functions - Modifiers and Constructors/modifiersAndConstructors.sol\":868:887  _addr != address(0) */\n      0xffffffffffffffffffffffffffffffffffffffff\n      and\n      sub\n        /* \".learneth/ethereum/remix-workshops/5.3 Functions - Modifiers and Constructors/modifiersAndConstructors.sol\":860:909  require(_addr != address(0), \"Not valid address\") */\n      tag_58\n      jumpi\n      mload(0x40)\n      0x08c379a000000000000000000000000000000000000000000000000000000000\n      dup2\n      mstore\n      0x04\n      add\n      tag_59\n      swap1\n      tag_60\n      jump\t// in\n    tag_59:\n      mload(0x40)\n      dup1\n      swap2\n      sub\n      swap1\n      revert\n    tag_58:\n        /* \".learneth/ethereum/remix-workshops/5.3 Functions - Modifiers and Constructors/modifiersAndConstructors.sol\":1032:1041  _newOwner */\n      dup2\n        /* \".learneth/ethereum/remix-workshops/5.3 Functions - Modifiers and Constructors/modifiersAndConstructors.sol\":1024:1029  owner */\n      0x00\n      dup1\n        /* \".learneth/ethereum/remix-workshops/5.3 Functions - Modifiers and Constructors/modifiersAndConstructors.sol\":1024:1041  owner = _newOwner */\n      0x0100\n      exp\n      dup2\n      sload\n      dup2\n      0xffffffffffffffffffffffffffffffffffffffff\n      mul\n      not\n      and\n      swap1\n      dup4\n      0xffffffffffffffffffffffffffffffffffffffff\n      and\n      mul\n      or\n      swap1\n      sstore\n      pop\n        /* \".learneth/ethereum/remix-workshops/5.3 Functions - Modifiers and Constructors/modifiersAndConstructors.sol\":685:686  _ */\n      pop\n        /* \".learneth/ethereum/remix-workshops/5.3 Functions - Modifiers and Constructors/modifiersAndConstructors.sol\":933:1048  function changeOwner(address _newOwner) public onlyOwner validAddress(_newOwner) {... */\n      pop\n      jump\t// out\n        /* \".learneth/ethereum/remix-workshops/5.3 Functions - Modifiers and Constructors/modifiersAndConstructors.sol\":218:236  bool public locked */\n    tag_29:\n      0x02\n      0x00\n      swap1\n      sload\n      swap1\n      0x0100\n      exp\n      swap1\n      div\n      0xff\n      and\n      dup2\n      jump\t// out\n        /* \"#utility.yul\":7:84   */\n    tag_62:\n        /* \"#utility.yul\":44:51   */\n      0x00\n        /* \"#utility.yul\":73:78   */\n      dup2\n        /* \"#utility.yul\":62:78   */\n      swap1\n      pop\n        /* \"#utility.yul\":7:84   */\n      swap2\n      swap1\n      pop\n      jump\t// out\n        /* \"#utility.yul\":90:208   */\n    tag_63:\n        /* \"#utility.yul\":177:201   */\n      tag_89\n        /* \"#utility.yul\":195:200   */\n      dup2\n        /* \"#utility.yul\":177:201   */\n      tag_62\n      jump\t// in\n    tag_89:\n        /* \"#utility.yul\":172:175   */\n      dup3\n        /* \"#utility.yul\":165:202   */\n      mstore\n        /* \"#utility.yul\":90:208   */\n      pop\n      pop\n      jump\t// out\n        /* \"#utility.yul\":214:436   */\n    tag_12:\n        /* \"#utility.yul\":307:311   */\n      0x00\n        /* \"#utility.yul\":345:347   */\n      0x20\n        /* \"#utility.yul\":334:343   */\n      dup3\n        /* \"#utility.yul\":330:348   */\n      add\n        /* \"#utility.yul\":322:348   */\n      swap1\n      pop\n        /* \"#utility.yul\":358:429   */\n      tag_91\n        /* \"#utility.yul\":426:427   */\n      0x00\n        /* \"#utility.yul\":415:424   */\n      dup4\n        /* \"#utility.yul\":411:428   */\n      add\n        /* \"#utility.yul\":402:408   */\n      dup5\n        /* \"#utility.yul\":358:429   */\n      tag_63\n      jump\t// in\n    tag_91:\n        /* \"#utility.yul\":214:436   */\n      swap3\n      swap2\n      pop\n      pop\n      jump\t// out\n        /* \"#utility.yul\":523:640   */\n    tag_65:\n        /* \"#utility.yul\":632:633   */\n      0x00\n        /* \"#utility.yul\":629:630   */\n      dup1\n        /* \"#utility.yul\":622:634   */\n      revert\n        /* \"#utility.yul\":769:891   */\n    tag_67:\n        /* \"#utility.yul\":842:866   */\n      tag_96\n        /* \"#utility.yul\":860:865   */\n      dup2\n        /* \"#utility.yul\":842:866   */\n      tag_62\n      jump\t// in\n    tag_96:\n        /* \"#utility.yul\":835:840   */\n      dup2\n        /* \"#utility.yul\":832:867   */\n      eq\n        /* \"#utility.yul\":822:885   */\n      tag_97\n      jumpi\n        /* \"#utility.yul\":881:882   */\n      0x00\n        /* \"#utility.yul\":878:879   */\n      dup1\n        /* \"#utility.yul\":871:883   */\n      revert\n        /* \"#utility.yul\":822:885   */\n    tag_97:\n        /* \"#utility.yul\":769:891   */\n      pop\n      jump\t// out\n        /* \"#utility.yul\":897:1036   */\n    tag_68:\n        /* \"#utility.yul\":943:948   */\n      0x00\n        /* \"#utility.yul\":981:987   */\n      dup2\n        /* \"#utility.yul\":968:988   */\n      calldataload\n        /* \"#utility.yul\":959:988   */\n      swap1\n      pop\n        /* \"#utility.yul\":997:1030   */\n      tag_99\n        /* \"#utility.yul\":1024:1029   */\n      dup2\n        /* \"#utility.yul\":997:1030   */\n      tag_67\n      jump\t// in\n    tag_99:\n        /* \"#utility.yul\":897:1036   */\n      swap3\n      swap2\n      pop\n      pop\n      jump\t// out\n        /* \"#utility.yul\":1042:1371   */\n    tag_15:\n        /* \"#utility.yul\":1101:1107   */\n      0x00\n        /* \"#utility.yul\":1150:1152   */\n      0x20\n        /* \"#utility.yul\":1138:1147   */\n      dup3\n        /* \"#utility.yul\":1129:1136   */\n      dup5\n        /* \"#utility.yul\":1125:1148   */\n      sub\n        /* \"#utility.yul\":1121:1153   */\n      slt\n        /* \"#utility.yul\":1118:1237   */\n      iszero\n      tag_101\n      jumpi\n        /* \"#utility.yul\":1156:1235   */\n      tag_102\n      tag_65\n      jump\t// in\n    tag_102:\n        /* \"#utility.yul\":1118:1237   */\n    tag_101:\n        /* \"#utility.yul\":1276:1277   */\n      0x00\n        /* \"#utility.yul\":1301:1354   */\n      tag_103\n        /* \"#utility.yul\":1346:1353   */\n      dup5\n        /* \"#utility.yul\":1337:1343   */\n      dup3\n        /* \"#utility.yul\":1326:1335   */\n      dup6\n        /* \"#utility.yul\":1322:1344   */\n      add\n        /* \"#utility.yul\":1301:1354   */\n      tag_68\n      jump\t// in\n    tag_103:\n        /* \"#utility.yul\":1291:1354   */\n      swap2\n      pop\n        /* \"#utility.yul\":1247:1364   */\n      pop\n        /* \"#utility.yul\":1042:1371   */\n      swap3\n      swap2\n      pop\n      pop\n      jump\t// out\n        /* \"#utility.yul\":1377:1503   */\n    tag_69:\n        /* \"#utility.yul\":1414:1421   */\n      0x00\n        /* \"#utility.yul\":1454:1496   */\n      0xffffffffffffffffffffffffffffffffffffffff\n        /* \"#utility.yul\":1447:1452   */\n      dup3\n        /* \"#utility.yul\":1443:1497   */\n      and\n        /* \"#utility.yul\":1432:1497   */\n      swap1\n      pop\n        /* \"#utility.yul\":1377:1503   */\n      swap2\n      swap1\n      pop\n      jump\t// out\n        /* \"#utility.yul\":1509:1605   */\n    tag_70:\n        /* \"#utility.yul\":1546:1553   */\n      0x00\n        /* \"#utility.yul\":1575:1599   */\n      tag_106\n        /* \"#utility.yul\":1593:1598   */\n      dup3\n        /* \"#utility.yul\":1575:1599   */\n      tag_69\n      jump\t// in\n    tag_106:\n        /* \"#utility.yul\":1564:1599   */\n      swap1\n      pop\n        /* \"#utility.yul\":1509:1605   */\n      swap2\n      swap1\n      pop\n      jump\t// out\n        /* \"#utility.yul\":1611:1729   */\n    tag_71:\n        /* \"#utility.yul\":1698:1722   */\n      tag_108\n        /* \"#utility.yul\":1716:1721   */\n      dup2\n        /* \"#utility.yul\":1698:1722   */\n      tag_70\n      jump\t// in\n    tag_108:\n        /* \"#utility.yul\":1693:1696   */\n      dup3\n        /* \"#utility.yul\":1686:1723   */\n      mstore\n        /* \"#utility.yul\":1611:1729   */\n      pop\n      pop\n      jump\t// out\n        /* \"#utility.yul\":1735:1957   */\n    tag_20:\n        /* \"#utility.yul\":1828:1832   */\n      0x00\n        /* \"#utility.yul\":1866:1868   */\n      0x20\n        /* \"#utility.yul\":1855:1864   */\n      dup3\n        /* \"#utility.yul\":1851:1869   */\n      add\n        /* \"#utility.yul\":1843:1869   */\n      swap1\n      pop\n        /* \"#utility.yul\":1879:1950   */\n      tag_110\n        /* \"#utility.yul\":1947:1948   */\n      0x00\n        /* \"#utility.yul\":1936:1945   */\n      dup4\n        /* \"#utility.yul\":1932:1949   */\n      add\n        /* \"#utility.yul\":1923:1929   */\n      dup5\n        /* \"#utility.yul\":1879:1950   */\n      tag_71\n      jump\t// in\n    tag_110:\n        /* \"#utility.yul\":1735:1957   */\n      swap3\n      swap2\n      pop\n      pop\n      jump\t// out\n        /* \"#utility.yul\":1963:2085   */\n    tag_72:\n        /* \"#utility.yul\":2036:2060   */\n      tag_112\n        /* \"#utility.yul\":2054:2059   */\n      dup2\n        /* \"#utility.yul\":2036:2060   */\n      tag_70\n      jump\t// in\n    tag_112:\n        /* \"#utility.yul\":2029:2034   */\n      dup2\n        /* \"#utility.yul\":2026:2061   */\n      eq\n        /* \"#utility.yul\":2016:2079   */\n      tag_113\n      jumpi\n        /* \"#utility.yul\":2075:2076   */\n      0x00\n        /* \"#utility.yul\":2072:2073   */\n      dup1\n        /* \"#utility.yul\":2065:2077   */\n      revert\n        /* \"#utility.yul\":2016:2079   */\n    tag_113:\n        /* \"#utility.yul\":1963:2085   */\n      pop\n      jump\t// out\n        /* \"#utility.yul\":2091:2230   */\n    tag_73:\n        /* \"#utility.yul\":2137:2142   */\n      0x00\n        /* \"#utility.yul\":2175:2181   */\n      dup2\n        /* \"#utility.yul\":2162:2182   */\n      calldataload\n        /* \"#utility.yul\":2153:2182   */\n      swap1\n      pop\n        /* \"#utility.yul\":2191:2224   */\n      tag_115\n        /* \"#utility.yul\":2218:2223   */\n      dup2\n        /* \"#utility.yul\":2191:2224   */\n      tag_72\n      jump\t// in\n    tag_115:\n        /* \"#utility.yul\":2091:2230   */\n      swap3\n      swap2\n      pop\n      pop\n      jump\t// out\n        /* \"#utility.yul\":2236:2565   */\n    tag_26:\n        /* \"#utility.yul\":2295:2301   */\n      0x00\n        /* \"#utility.yul\":2344:2346   */\n      0x20\n        /* \"#utility.yul\":2332:2341   */\n      dup3\n        /* \"#utility.yul\":2323:2330   */\n      dup5\n        /* \"#utility.yul\":2319:2342   */\n      sub\n        /* \"#utility.yul\":2315:2347   */\n      slt\n        /* \"#utility.yul\":2312:2431   */\n      iszero\n      tag_117\n      jumpi\n        /* \"#utility.yul\":2350:2429   */\n      tag_118\n      tag_65\n      jump\t// in\n    tag_118:\n        /* \"#utility.yul\":2312:2431   */\n    tag_117:\n        /* \"#utility.yul\":2470:2471   */\n      0x00\n        /* \"#utility.yul\":2495:2548   */\n      tag_119\n        /* \"#utility.yul\":2540:2547   */\n      dup5\n        /* \"#utility.yul\":2531:2537   */\n      dup3\n        /* \"#utility.yul\":2520:2529   */\n      dup6\n        /* \"#utility.yul\":2516:2538   */\n      add\n        /* \"#utility.yul\":2495:2548   */\n      tag_73\n      jump\t// in\n    tag_119:\n        /* \"#utility.yul\":2485:2548   */\n      swap2\n      pop\n        /* \"#utility.yul\":2441:2558   */\n      pop\n        /* \"#utility.yul\":2236:2565   */\n      swap3\n      swap2\n      pop\n      pop\n      jump\t// out\n        /* \"#utility.yul\":2571:2661   */\n    tag_74:\n        /* \"#utility.yul\":2605:2612   */\n      0x00\n        /* \"#utility.yul\":2648:2653   */\n      dup2\n        /* \"#utility.yul\":2641:2654   */\n      iszero\n        /* \"#utility.yul\":2634:2655   */\n      iszero\n        /* \"#utility.yul\":2623:2655   */\n      swap1\n      pop\n        /* \"#utility.yul\":2571:2661   */\n      swap2\n      swap1\n      pop\n      jump\t// out\n        /* \"#utility.yul\":2667:2776   */\n    tag_75:\n        /* \"#utility.yul\":2748:2769   */\n      tag_122\n        /* \"#utility.yul\":2763:2768   */\n      dup2\n        /* \"#utility.yul\":2748:2769   */\n      tag_74\n      jump\t// in\n    tag_122:\n        /* \"#utility.yul\":2743:2746   */\n      dup3\n        /* \"#utility.yul\":2736:2770   */\n      mstore\n        /* \"#utility.yul\":2667:2776   */\n      pop\n      pop\n      jump\t// out\n        /* \"#utility.yul\":2782:2992   */\n    tag_31:\n        /* \"#utility.yul\":2869:2873   */\n      0x00\n        /* \"#utility.yul\":2907:2909   */\n      0x20\n        /* \"#utility.yul\":2896:2905   */\n      dup3\n        /* \"#utility.yul\":2892:2910   */\n      add\n        /* \"#utility.yul\":2884:2910   */\n      swap1\n      pop\n        /* \"#utility.yul\":2920:2985   */\n      tag_124\n        /* \"#utility.yul\":2982:2983   */\n      0x00\n        /* \"#utility.yul\":2971:2980   */\n      dup4\n        /* \"#utility.yul\":2967:2984   */\n      add\n        /* \"#utility.yul\":2958:2964   */\n      dup5\n        /* \"#utility.yul\":2920:2985   */\n      tag_75\n      jump\t// in\n    tag_124:\n        /* \"#utility.yul\":2782:2992   */\n      swap3\n      swap2\n      pop\n      pop\n      jump\t// out\n        /* \"#utility.yul\":2998:3167   */\n    tag_76:\n        /* \"#utility.yul\":3082:3093   */\n      0x00\n        /* \"#utility.yul\":3116:3122   */\n      dup3\n        /* \"#utility.yul\":3111:3114   */\n      dup3\n        /* \"#utility.yul\":3104:3123   */\n      mstore\n        /* \"#utility.yul\":3156:3160   */\n      0x20\n        /* \"#utility.yul\":3151:3154   */\n      dup3\n        /* \"#utility.yul\":3147:3161   */\n      add\n        /* \"#utility.yul\":3132:3161   */\n      swap1\n      pop\n        /* \"#utility.yul\":2998:3167   */\n      swap3\n      swap2\n      pop\n      pop\n      jump\t// out\n        /* \"#utility.yul\":3173:3336   */\n    tag_77:\n        /* \"#utility.yul\":3313:3328   */\n      0x4e6f207265656e7472616e637900000000000000000000000000000000000000\n        /* \"#utility.yul\":3309:3310   */\n      0x00\n        /* \"#utility.yul\":3301:3307   */\n      dup3\n        /* \"#utility.yul\":3297:3311   */\n      add\n        /* \"#utility.yul\":3290:3329   */\n      mstore\n        /* \"#utility.yul\":3173:3336   */\n      pop\n      jump\t// out\n        /* \"#utility.yul\":3342:3708   */\n    tag_78:\n        /* \"#utility.yul\":3484:3487   */\n      0x00\n        /* \"#utility.yul\":3505:3572   */\n      tag_128\n        /* \"#utility.yul\":3569:3571   */\n      0x0d\n        /* \"#utility.yul\":3564:3567   */\n      dup4\n        /* \"#utility.yul\":3505:3572   */\n      tag_76\n      jump\t// in\n    tag_128:\n        /* \"#utility.yul\":3498:3572   */\n      swap2\n      pop\n        /* \"#utility.yul\":3581:3674   */\n      tag_129\n        /* \"#utility.yul\":3670:3673   */\n      dup3\n        /* \"#utility.yul\":3581:3674   */\n      tag_77\n      jump\t// in\n    tag_129:\n        /* \"#utility.yul\":3699:3701   */\n      0x20\n        /* \"#utility.yul\":3694:3697   */\n      dup3\n        /* \"#utility.yul\":3690:3702   */\n      add\n        /* \"#utility.yul\":3683:3702   */\n      swap1\n      pop\n        /* \"#utility.yul\":3342:3708   */\n      swap2\n      swap1\n      pop\n      jump\t// out\n        /* \"#utility.yul\":3714:4133   */\n    tag_35:\n        /* \"#utility.yul\":3880:3884   */\n      0x00\n        /* \"#utility.yul\":3918:3920   */\n      0x20\n        /* \"#utility.yul\":3907:3916   */\n      dup3\n        /* \"#utility.yul\":3903:3921   */\n      add\n        /* \"#utility.yul\":3895:3921   */\n      swap1\n      pop\n        /* \"#utility.yul\":3967:3976   */\n      dup2\n        /* \"#utility.yul\":3961:3965   */\n      dup2\n        /* \"#utility.yul\":3957:3977   */\n      sub\n        /* \"#utility.yul\":3953:3954   */\n      0x00\n        /* \"#utility.yul\":3942:3951   */\n      dup4\n        /* \"#utility.yul\":3938:3955   */\n      add\n        /* \"#utility.yul\":3931:3978   */\n      mstore\n        /* \"#utility.yul\":3995:4126   */\n      tag_131\n        /* \"#utility.yul\":4121:4125   */\n      dup2\n        /* \"#utility.yul\":3995:4126   */\n      tag_78\n      jump\t// in\n    tag_131:\n        /* \"#utility.yul\":3987:4126   */\n      swap1\n      pop\n        /* \"#utility.yul\":3714:4133   */\n      swap2\n      swap1\n      pop\n      jump\t// out\n        /* \"#utility.yul\":4139:4319   */\n    tag_79:\n        /* \"#utility.yul\":4187:4264   */\n      0x4e487b7100000000000000000000000000000000000000000000000000000000\n        /* \"#utility.yul\":4184:4185   */\n      0x00\n        /* \"#utility.yul\":4177:4265   */\n      mstore\n        /* \"#utility.yul\":4284:4288   */\n      0x11\n        /* \"#utility.yul\":4281:4282   */\n      0x04\n        /* \"#utility.yul\":4274:4289   */\n      mstore\n        /* \"#utility.yul\":4308:4312   */\n      0x24\n        /* \"#utility.yul\":4305:4306   */\n      0x00\n        /* \"#utility.yul\":4298:4313   */\n      revert\n        /* \"#utility.yul\":4325:4519   */\n    tag_38:\n        /* \"#utility.yul\":4365:4369   */\n      0x00\n        /* \"#utility.yul\":4385:4405   */\n      tag_134\n        /* \"#utility.yul\":4403:4404   */\n      dup3\n        /* \"#utility.yul\":4385:4405   */\n      tag_62\n      jump\t// in\n    tag_134:\n        /* \"#utility.yul\":4380:4405   */\n      swap2\n      pop\n        /* \"#utility.yul\":4419:4439   */\n      tag_135\n        /* \"#utility.yul\":4437:4438   */\n      dup4\n        /* \"#utility.yul\":4419:4439   */\n      tag_62\n      jump\t// in\n    tag_135:\n        /* \"#utility.yul\":4414:4439   */\n      swap3\n      pop\n        /* \"#utility.yul\":4463:4464   */\n      dup3\n        /* \"#utility.yul\":4460:4461   */\n      dup3\n        /* \"#utility.yul\":4456:4465   */\n      sub\n        /* \"#utility.yul\":4448:4465   */\n      swap1\n      pop\n        /* \"#utility.yul\":4487:4488   */\n      dup2\n        /* \"#utility.yul\":4481:4485   */\n      dup2\n        /* \"#utility.yul\":4478:4489   */\n      gt\n        /* \"#utility.yul\":4475:4512   */\n      iszero\n      tag_136\n      jumpi\n        /* \"#utility.yul\":4492:4510   */\n      tag_137\n      tag_79\n      jump\t// in\n    tag_137:\n        /* \"#utility.yul\":4475:4512   */\n    tag_136:\n        /* \"#utility.yul\":4325:4519   */\n      swap3\n      swap2\n      pop\n      pop\n      jump\t// out\n        /* \"#utility.yul\":4525:4684   */\n    tag_80:\n        /* \"#utility.yul\":4665:4676   */\n      0x4e6f74206f776e65720000000000000000000000000000000000000000000000\n        /* \"#utility.yul\":4661:4662   */\n      0x00\n        /* \"#utility.yul\":4653:4659   */\n      dup3\n        /* \"#utility.yul\":4649:4663   */\n      add\n        /* \"#utility.yul\":4642:4677   */\n      mstore\n        /* \"#utility.yul\":4525:4684   */\n      pop\n      jump\t// out\n        /* \"#utility.yul\":4690:5055   */\n    tag_81:\n        /* \"#utility.yul\":4832:4835   */\n      0x00\n        /* \"#utility.yul\":4853:4919   */\n      tag_140\n        /* \"#utility.yul\":4917:4918   */\n      0x09\n        /* \"#utility.yul\":4912:4915   */\n      dup4\n        /* \"#utility.yul\":4853:4919   */\n      tag_76\n      jump\t// in\n    tag_140:\n        /* \"#utility.yul\":4846:4919   */\n      swap2\n      pop\n        /* \"#utility.yul\":4928:5021   */\n      tag_141\n        /* \"#utility.yul\":5017:5020   */\n      dup3\n        /* \"#utility.yul\":4928:5021   */\n      tag_80\n      jump\t// in\n    tag_141:\n        /* \"#utility.yul\":5046:5048   */\n      0x20\n        /* \"#utility.yul\":5041:5044   */\n      dup3\n        /* \"#utility.yul\":5037:5049   */\n      add\n        /* \"#utility.yul\":5030:5049   */\n      swap1\n      pop\n        /* \"#utility.yul\":4690:5055   */\n      swap2\n      swap1\n      pop\n      jump\t// out\n        /* \"#utility.yul\":5061:5480   */\n    tag_45:\n        /* \"#utility.yul\":5227:5231   */\n      0x00\n        /* \"#utility.yul\":5265:5267   */\n      0x20\n        /* \"#utility.yul\":5254:5263   */\n      dup3\n        /* \"#utility.yul\":5250:5268   */\n      add\n        /* \"#utility.yul\":5242:5268   */\n      swap1\n      pop\n        /* \"#utility.yul\":5314:5323   */\n      dup2\n        /* \"#utility.yul\":5308:5312   */\n      dup2\n        /* \"#utility.yul\":5304:5324   */\n      sub\n        /* \"#utility.yul\":5300:5301   */\n      0x00\n        /* \"#utility.yul\":5289:5298   */\n      dup4\n        /* \"#utility.yul\":5285:5302   */\n      add\n        /* \"#utility.yul\":5278:5325   */\n      mstore\n        /* \"#utility.yul\":5342:5473   */\n      tag_143\n        /* \"#utility.yul\":5468:5472   */\n      dup2\n        /* \"#utility.yul\":5342:5473   */\n      tag_81\n      jump\t// in\n    tag_143:\n        /* \"#utility.yul\":5334:5473   */\n      swap1\n      pop\n        /* \"#utility.yul\":5061:5480   */\n      swap2\n      swap1\n      pop\n      jump\t// out\n        /* \"#utility.yul\":5486:5715   */\n    tag_82:\n        /* \"#utility.yul\":5626:5660   */\n      0x496e707574206973206e656761746976652e20582063616e206e6f7420626520\n        /* \"#utility.yul\":5622:5623   */\n      0x00\n        /* \"#utility.yul\":5614:5620   */\n      dup3\n        /* \"#utility.yul\":5610:5624   */\n      add\n        /* \"#utility.yul\":5603:5661   */\n      mstore\n        /* \"#utility.yul\":5695:5707   */\n      0x696e637265617365642e00000000000000000000000000000000000000000000\n        /* \"#utility.yul\":5690:5692   */\n      0x20\n        /* \"#utility.yul\":5682:5688   */\n      dup3\n        /* \"#utility.yul\":5678:5693   */\n      add\n        /* \"#utility.yul\":5671:5708   */\n      mstore\n        /* \"#utility.yul\":5486:5715   */\n      pop\n      jump\t// out\n        /* \"#utility.yul\":5721:6087   */\n    tag_83:\n        /* \"#utility.yul\":5863:5866   */\n      0x00\n        /* \"#utility.yul\":5884:5951   */\n      tag_146\n        /* \"#utility.yul\":5948:5950   */\n      0x2a\n        /* \"#utility.yul\":5943:5946   */\n      dup4\n        /* \"#utility.yul\":5884:5951   */\n      tag_76\n      jump\t// in\n    tag_146:\n        /* \"#utility.yul\":5877:5951   */\n      swap2\n      pop\n        /* \"#utility.yul\":5960:6053   */\n      tag_147\n        /* \"#utility.yul\":6049:6052   */\n      dup3\n        /* \"#utility.yul\":5960:6053   */\n      tag_82\n      jump\t// in\n    tag_147:\n        /* \"#utility.yul\":6078:6080   */\n      0x40\n        /* \"#utility.yul\":6073:6076   */\n      dup3\n        /* \"#utility.yul\":6069:6081   */\n      add\n        /* \"#utility.yul\":6062:6081   */\n      swap1\n      pop\n        /* \"#utility.yul\":5721:6087   */\n      swap2\n      swap1\n      pop\n      jump\t// out\n        /* \"#utility.yul\":6093:6512   */\n    tag_49:\n        /* \"#utility.yul\":6259:6263   */\n      0x00\n        /* \"#utility.yul\":6297:6299   */\n      0x20\n        /* \"#utility.yul\":6286:6295   */\n      dup3\n        /* \"#utility.yul\":6282:6300   */\n      add\n        /* \"#utility.yul\":6274:6300   */\n      swap1\n      pop\n        /* \"#utility.yul\":6346:6355   */\n      dup2\n        /* \"#utility.yul\":6340:6344   */\n      dup2\n        /* \"#utility.yul\":6336:6356   */\n      sub\n        /* \"#utility.yul\":6332:6333   */\n      0x00\n        /* \"#utility.yul\":6321:6330   */\n      dup4\n        /* \"#utility.yul\":6317:6334   */\n      add\n        /* \"#utility.yul\":6310:6357   */\n      mstore\n        /* \"#utility.yul\":6374:6505   */\n      tag_149\n        /* \"#utility.yul\":6500:6504   */\n      dup2\n        /* \"#utility.yul\":6374:6505   */\n      tag_83\n      jump\t// in\n    tag_149:\n        /* \"#utility.yul\":6366:6505   */\n      swap1\n      pop\n        /* \"#utility.yul\":6093:6512   */\n      swap2\n      swap1\n      pop\n      jump\t// out\n        /* \"#utility.yul\":6518:6709   */\n    tag_52:\n        /* \"#utility.yul\":6558:6561   */\n      0x00\n        /* \"#utility.yul\":6577:6597   */\n      tag_151\n        /* \"#utility.yul\":6595:6596   */\n      dup3\n        /* \"#utility.yul\":6577:6597   */\n      tag_62\n      jump\t// in\n    tag_151:\n        /* \"#utility.yul\":6572:6597   */\n      swap2\n      pop\n        /* \"#utility.yul\":6611:6631   */\n      tag_152\n        /* \"#utility.yul\":6629:6630   */\n      dup4\n        /* \"#utility.yul\":6611:6631   */\n      tag_62\n      jump\t// in\n    tag_152:\n        /* \"#utility.yul\":6606:6631   */\n      swap3\n      pop\n        /* \"#utility.yul\":6654:6655   */\n      dup3\n        /* \"#utility.yul\":6651:6652   */\n      dup3\n        /* \"#utility.yul\":6647:6656   */\n      add\n        /* \"#utility.yul\":6640:6656   */\n      swap1\n      pop\n        /* \"#utility.yul\":6675:6678   */\n      dup1\n        /* \"#utility.yul\":6672:6673   */\n      dup3\n        /* \"#utility.yul\":6669:6679   */\n      gt\n        /* \"#utility.yul\":6666:6702   */\n      iszero\n      tag_153\n      jumpi\n        /* \"#utility.yul\":6682:6700   */\n      tag_154\n      tag_79\n      jump\t// in\n    tag_154:\n        /* \"#utility.yul\":6666:6702   */\n    tag_153:\n        /* \"#utility.yul\":6518:6709   */\n      swap3\n      swap2\n      pop\n      pop\n      jump\t// out\n        /* \"#utility.yul\":6715:6882   */\n    tag_84:\n        /* \"#utility.yul\":6855:6874   */\n      0x4e6f742076616c69642061646472657373000000000000000000000000000000\n        /* \"#utility.yul\":6851:6852   */\n      0x00\n        /* \"#utility.yul\":6843:6849   */\n      dup3\n        /* \"#utility.yul\":6839:6853   */\n      add\n        /* \"#utility.yul\":6832:6875   */\n      mstore\n        /* \"#utility.yul\":6715:6882   */\n      pop\n      jump\t// out\n        /* \"#utility.yul\":6888:7254   */\n    tag_85:\n        /* \"#utility.yul\":7030:7033   */\n      0x00\n        /* \"#utility.yul\":7051:7118   */\n      tag_157\n        /* \"#utility.yul\":7115:7117   */\n      0x11\n        /* \"#utility.yul\":7110:7113   */\n      dup4\n        /* \"#utility.yul\":7051:7118   */\n      tag_76\n      jump\t// in\n    tag_157:\n        /* \"#utility.yul\":7044:7118   */\n      swap2\n      pop\n        /* \"#utility.yul\":7127:7220   */\n      tag_158\n        /* \"#utility.yul\":7216:7219   */\n      dup3\n        /* \"#utility.yul\":7127:7220   */\n      tag_84\n      jump\t// in\n    tag_158:\n        /* \"#utility.yul\":7245:7247   */\n      0x20\n        /* \"#utility.yul\":7240:7243   */\n      dup3\n        /* \"#utility.yul\":7236:7248   */\n      add\n        /* \"#utility.yul\":7229:7248   */\n      swap1\n      pop\n        /* \"#utility.yul\":6888:7254   */\n      swap2\n      swap1\n      pop\n      jump\t// out\n        /* \"#utility.yul\":7260:7679   */\n    tag_60:\n        /* \"#utility.yul\":7426:7430   */\n      0x00\n        /* \"#utility.yul\":7464:7466   */\n      0x20\n        /* \"#utility.yul\":7453:7462   */\n      dup3\n        /* \"#utility.yul\":7449:7467   */\n      add\n        /* \"#utility.yul\":7441:7467   */\n      swap1\n      pop\n        /* \"#utility.yul\":7513:7522   */\n      dup2\n        /* \"#utility.yul\":7507:7511   */\n      dup2\n        /* \"#utility.yul\":7503:7523   */\n      sub\n        /* \"#utility.yul\":7499:7500   */\n      0x00\n        /* \"#utility.yul\":7488:7497   */\n      dup4\n        /* \"#utility.yul\":7484:7501   */\n      add\n        /* \"#utility.yul\":7477:7524   */\n      mstore\n        /* \"#utility.yul\":7541:7672   */\n      tag_160\n        /* \"#utility.yul\":7667:7671   */\n      dup2\n        /* \"#utility.yul\":7541:7672   */\n      tag_85\n      jump\t// in\n    tag_160:\n        /* \"#utility.yul\":7533:7672   */\n      swap1\n      pop\n        /* \"#utility.yul\":7260:7679   */\n      swap2\n      swap1\n      pop\n      jump\t// out\n\n    auxdata: 0xa2646970667358221220ea293cbfd3935240b198cf08df463905588e607102fbb2b3e3943fa3c965105764736f6c634300081a0033\n}\n",
				"bytecode": {
					"linkReferences": {},
					"object": "6080604052600a6001553480156013575f80fd5b50335f806101000a81548173ffffffffffffffffffffffffffffffffffffffff021916908373ffffffffffffffffffffffffffffffffffffffff16021790555061083b806100605f395ff3fe608060405234801561000f575f80fd5b5060043610610060575f3560e01c80630c55699c146100645780633a9ebefd146100825780638da5cb5b1461009e5780639758d20d146100bc578063a6f9dae1146100d8578063cf309012146100f4575b5f80fd5b61006c610112565b604051610079919061044a565b60405180910390f35b61009c60048036038101906100979190610491565b610118565b005b6100a66101d4565b6040516100b391906104fb565b60405180910390f35b6100d660048036038101906100d19190610491565b6101f7565b005b6100f260048036038101906100ed919061053e565b6102e1565b005b6100fc610420565b6040516101099190610583565b60405180910390f35b60015481565b60025f9054906101000a900460ff1615610167576040517f08c379a000000000000000000000000000000000000000000000000000000000815260040161015e906105f6565b60405180910390fd5b600160025f6101000a81548160ff0219169083151502179055508060015f8282546101929190610641565b9250508190555060018111156101b8576101b76001826101b29190610641565b610118565b5b5f60025f6101000a81548160ff02191690831515021790555050565b5f8054906101000a900473ffffffffffffffffffffffffffffffffffffffff1681565b5f8054906101000a900473ffffffffffffffffffffffffffffffffffffffff1673ffffffffffffffffffffffffffffffffffffffff163373ffffffffffffffffffffffffffffffffffffffff1614610284576040517f08c379a000000000000000000000000000000000000000000000000000000000815260040161027b906106be565b60405180910390fd5b805f81116102c7576040517f08c379a00000000000000000000000000000000000000000000000000000000081526004016102be9061074c565b60405180910390fd5b81806001546102d6919061076a565b600181905550505050565b5f8054906101000a900473ffffffffffffffffffffffffffffffffffffffff1673ffffffffffffffffffffffffffffffffffffffff163373ffffffffffffffffffffffffffffffffffffffff161461036e576040517f08c379a0000000000000000000000000000000000000000000000000000000008152600401610365906106be565b60405180910390fd5b805f73ffffffffffffffffffffffffffffffffffffffff168173ffffffffffffffffffffffffffffffffffffffff16036103dd576040517f08c379a00000000000000000000000000000000000000000000000000000000081526004016103d4906107e7565b60405180910390fd5b815f806101000a81548173ffffffffffffffffffffffffffffffffffffffff021916908373ffffffffffffffffffffffffffffffffffffffff1602179055505050565b60025f9054906101000a900460ff1681565b5f819050919050565b61044481610432565b82525050565b5f60208201905061045d5f83018461043b565b92915050565b5f80fd5b61047081610432565b811461047a575f80fd5b50565b5f8135905061048b81610467565b92915050565b5f602082840312156104a6576104a5610463565b5b5f6104b38482850161047d565b91505092915050565b5f73ffffffffffffffffffffffffffffffffffffffff82169050919050565b5f6104e5826104bc565b9050919050565b6104f5816104db565b82525050565b5f60208201905061050e5f8301846104ec565b92915050565b61051d816104db565b8114610527575f80fd5b50565b5f8135905061053881610514565b92915050565b5f6020828403121561055357610552610463565b5b5f6105608482850161052a565b91505092915050565b5f8115159050919050565b61057d81610569565b82525050565b5f6020820190506105965f830184610574565b92915050565b5f82825260208201905092915050565b7f4e6f207265656e7472616e6379000000000000000000000000000000000000005f82015250565b5f6105e0600d8361059c565b91506105eb826105ac565b602082019050919050565b5f6020820190508181035f83015261060d816105d4565b9050919050565b7f4e487b71000000000000000000000000000000000000000000000000000000005f52601160045260245ffd5b5f61064b82610432565b915061065683610432565b925082820390508181111561066e5761066d610614565b5b92915050565b7f4e6f74206f776e657200000000000000000000000000000000000000000000005f82015250565b5f6106a860098361059c565b91506106b382610674565b602082019050919050565b5f6020820190508181035f8301526106d58161069c565b9050919050565b7f496e707574206973206e656761746976652e20582063616e206e6f74206265205f8201527f696e637265617365642e00000000000000000000000000000000000000000000602082015250565b5f610736602a8361059c565b9150610741826106dc565b604082019050919050565b5f6020820190508181035f8301526107638161072a565b9050919050565b5f61077482610432565b915061077f83610432565b925082820190508082111561079757610796610614565b5b92915050565b7f4e6f742076616c696420616464726573730000000000000000000000000000005f82015250565b5f6107d160118361059c565b91506107dc8261079d565b602082019050919050565b5f6020820190508181035f8301526107fe816107c5565b905091905056fea2646970667358221220ea293cbfd3935240b198cf08df463905588e607102fbb2b3e3943fa3c965105764736f6c634300081a0033",
					"opcodes": "PUSH1 0x80 PUSH1 0x40 MSTORE PUSH1 0xA PUSH1 0x1 SSTORE CALLVALUE DUP1 ISZERO PUSH1 0x13 JUMPI PUSH0 DUP1 REVERT JUMPDEST POP CALLER PUSH0 DUP1 PUSH2 0x100 EXP DUP2 SLOAD DUP2 PUSH20 0xFFFFFFFFFFFFFFFFFFFFFFFFFFFFFFFFFFFFFFFF MUL NOT AND SWAP1 DUP4 PUSH20 0xFFFFFFFFFFFFFFFFFFFFFFFFFFFFFFFFFFFFFFFF AND MUL OR SWAP1 SSTORE POP PUSH2 0x83B DUP1 PUSH2 0x60 PUSH0 CODECOPY PUSH0 RETURN INVALID PUSH1 0x80 PUSH1 0x40 MSTORE CALLVALUE DUP1 ISZERO PUSH2 0xF JUMPI PUSH0 DUP1 REVERT JUMPDEST POP PUSH1 0x4 CALLDATASIZE LT PUSH2 0x60 JUMPI PUSH0 CALLDATALOAD PUSH1 0xE0 SHR DUP1 PUSH4 0xC55699C EQ PUSH2 0x64 JUMPI DUP1 PUSH4 0x3A9EBEFD EQ PUSH2 0x82 JUMPI DUP1 PUSH4 0x8DA5CB5B EQ PUSH2 0x9E JUMPI DUP1 PUSH4 0x9758D20D EQ PUSH2 0xBC JUMPI DUP1 PUSH4 0xA6F9DAE1 EQ PUSH2 0xD8 JUMPI DUP1 PUSH4 0xCF309012 EQ PUSH2 0xF4 JUMPI JUMPDEST PUSH0 DUP1 REVERT JUMPDEST PUSH2 0x6C PUSH2 0x112 JUMP JUMPDEST PUSH1 0x40 MLOAD PUSH2 0x79 SWAP2 SWAP1 PUSH2 0x44A JUMP JUMPDEST PUSH1 0x40 MLOAD DUP1 SWAP2 SUB SWAP1 RETURN JUMPDEST PUSH2 0x9C PUSH1 0x4 DUP1 CALLDATASIZE SUB DUP2 ADD SWAP1 PUSH2 0x97 SWAP2 SWAP1 PUSH2 0x491 JUMP JUMPDEST PUSH2 0x118 JUMP JUMPDEST STOP JUMPDEST PUSH2 0xA6 PUSH2 0x1D4 JUMP JUMPDEST PUSH1 0x40 MLOAD PUSH2 0xB3 SWAP2 SWAP1 PUSH2 0x4FB JUMP JUMPDEST PUSH1 0x40 MLOAD DUP1 SWAP2 SUB SWAP1 RETURN JUMPDEST PUSH2 0xD6 PUSH1 0x4 DUP1 CALLDATASIZE SUB DUP2 ADD SWAP1 PUSH2 0xD1 SWAP2 SWAP1 PUSH2 0x491 JUMP JUMPDEST PUSH2 0x1F7 JUMP JUMPDEST STOP JUMPDEST PUSH2 0xF2 PUSH1 0x4 DUP1 CALLDATASIZE SUB DUP2 ADD SWAP1 PUSH2 0xED SWAP2 SWAP1 PUSH2 0x53E JUMP JUMPDEST PUSH2 0x2E1 JUMP JUMPDEST STOP JUMPDEST PUSH2 0xFC PUSH2 0x420 JUMP JUMPDEST PUSH1 0x40 MLOAD PUSH2 0x109 SWAP2 SWAP1 PUSH2 0x583 JUMP JUMPDEST PUSH1 0x40 MLOAD DUP1 SWAP2 SUB SWAP1 RETURN JUMPDEST PUSH1 0x1 SLOAD DUP2 JUMP JUMPDEST PUSH1 0x2 PUSH0 SWAP1 SLOAD SWAP1 PUSH2 0x100 EXP SWAP1 DIV PUSH1 0xFF AND ISZERO PUSH2 0x167 JUMPI PUSH1 0x40 MLOAD PUSH32 0x8C379A000000000000000000000000000000000000000000000000000000000 DUP2 MSTORE PUSH1 0x4 ADD PUSH2 0x15E SWAP1 PUSH2 0x5F6 JUMP JUMPDEST PUSH1 0x40 MLOAD DUP1 SWAP2 SUB SWAP1 REVERT JUMPDEST PUSH1 0x1 PUSH1 0x2 PUSH0 PUSH2 0x100 EXP DUP2 SLOAD DUP2 PUSH1 0xFF MUL NOT AND SWAP1 DUP4 ISZERO ISZERO MUL OR SWAP1 SSTORE POP DUP1 PUSH1 0x1 PUSH0 DUP3 DUP3 SLOAD PUSH2 0x192 SWAP2 SWAP1 PUSH2 0x641 JUMP JUMPDEST SWAP3 POP POP DUP2 SWAP1 SSTORE POP PUSH1 0x1 DUP2 GT ISZERO PUSH2 0x1B8 JUMPI PUSH2 0x1B7 PUSH1 0x1 DUP3 PUSH2 0x1B2 SWAP2 SWAP1 PUSH2 0x641 JUMP JUMPDEST PUSH2 0x118 JUMP JUMPDEST JUMPDEST PUSH0 PUSH1 0x2 PUSH0 PUSH2 0x100 EXP DUP2 SLOAD DUP2 PUSH1 0xFF MUL NOT AND SWAP1 DUP4 ISZERO ISZERO MUL OR SWAP1 SSTORE POP POP JUMP JUMPDEST PUSH0 DUP1 SLOAD SWAP1 PUSH2 0x100 EXP SWAP1 DIV PUSH20 0xFFFFFFFFFFFFFFFFFFFFFFFFFFFFFFFFFFFFFFFF AND DUP2 JUMP JUMPDEST PUSH0 DUP1 SLOAD SWAP1 PUSH2 0x100 EXP SWAP1 DIV PUSH20 0xFFFFFFFFFFFFFFFFFFFFFFFFFFFFFFFFFFFFFFFF AND PUSH20 0xFFFFFFFFFFFFFFFFFFFFFFFFFFFFFFFFFFFFFFFF AND CALLER PUSH20 0xFFFFFFFFFFFFFFFFFFFFFFFFFFFFFFFFFFFFFFFF AND EQ PUSH2 0x284 JUMPI PUSH1 0x40 MLOAD PUSH32 0x8C379A000000000000000000000000000000000000000000000000000000000 DUP2 MSTORE PUSH1 0x4 ADD PUSH2 0x27B SWAP1 PUSH2 0x6BE JUMP JUMPDEST PUSH1 0x40 MLOAD DUP1 SWAP2 SUB SWAP1 REVERT JUMPDEST DUP1 PUSH0 DUP2 GT PUSH2 0x2C7 JUMPI PUSH1 0x40 MLOAD PUSH32 0x8C379A000000000000000000000000000000000000000000000000000000000 DUP2 MSTORE PUSH1 0x4 ADD PUSH2 0x2BE SWAP1 PUSH2 0x74C JUMP JUMPDEST PUSH1 0x40 MLOAD DUP1 SWAP2 SUB SWAP1 REVERT JUMPDEST DUP2 DUP1 PUSH1 0x1 SLOAD PUSH2 0x2D6 SWAP2 SWAP1 PUSH2 0x76A JUMP JUMPDEST PUSH1 0x1 DUP2 SWAP1 SSTORE POP POP POP POP JUMP JUMPDEST PUSH0 DUP1 SLOAD SWAP1 PUSH2 0x100 EXP SWAP1 DIV PUSH20 0xFFFFFFFFFFFFFFFFFFFFFFFFFFFFFFFFFFFFFFFF AND PUSH20 0xFFFFFFFFFFFFFFFFFFFFFFFFFFFFFFFFFFFFFFFF AND CALLER PUSH20 0xFFFFFFFFFFFFFFFFFFFFFFFFFFFFFFFFFFFFFFFF AND EQ PUSH2 0x36E JUMPI PUSH1 0x40 MLOAD PUSH32 0x8C379A000000000000000000000000000000000000000000000000000000000 DUP2 MSTORE PUSH1 0x4 ADD PUSH2 0x365 SWAP1 PUSH2 0x6BE JUMP JUMPDEST PUSH1 0x40 MLOAD DUP1 SWAP2 SUB SWAP1 REVERT JUMPDEST DUP1 PUSH0 PUSH20 0xFFFFFFFFFFFFFFFFFFFFFFFFFFFFFFFFFFFFFFFF AND DUP2 PUSH20 0xFFFFFFFFFFFFFFFFFFFFFFFFFFFFFFFFFFFFFFFF AND SUB PUSH2 0x3DD JUMPI PUSH1 0x40 MLOAD PUSH32 0x8C379A000000000000000000000000000000000000000000000000000000000 DUP2 MSTORE PUSH1 0x4 ADD PUSH2 0x3D4 SWAP1 PUSH2 0x7E7 JUMP JUMPDEST PUSH1 0x40 MLOAD DUP1 SWAP2 SUB SWAP1 REVERT JUMPDEST DUP2 PUSH0 DUP1 PUSH2 0x100 EXP DUP2 SLOAD DUP2 PUSH20 0xFFFFFFFFFFFFFFFFFFFFFFFFFFFFFFFFFFFFFFFF MUL NOT AND SWAP1 DUP4 PUSH20 0xFFFFFFFFFFFFFFFFFFFFFFFFFFFFFFFFFFFFFFFF AND MUL OR SWAP1 SSTORE POP POP POP JUMP JUMPDEST PUSH1 0x2 PUSH0 SWAP1 SLOAD SWAP1 PUSH2 0x100 EXP SWAP1 DIV PUSH1 0xFF AND DUP2 JUMP JUMPDEST PUSH0 DUP2 SWAP1 POP SWAP2 SWAP1 POP JUMP JUMPDEST PUSH2 0x444 DUP2 PUSH2 0x432 JUMP JUMPDEST DUP3 MSTORE POP POP JUMP JUMPDEST PUSH0 PUSH1 0x20 DUP3 ADD SWAP1 POP PUSH2 0x45D PUSH0 DUP4 ADD DUP5 PUSH2 0x43B JUMP JUMPDEST SWAP3 SWAP2 POP POP JUMP JUMPDEST PUSH0 DUP1 REVERT JUMPDEST PUSH2 0x470 DUP2 PUSH2 0x432 JUMP JUMPDEST DUP2 EQ PUSH2 0x47A JUMPI PUSH0 DUP1 REVERT JUMPDEST POP JUMP JUMPDEST PUSH0 DUP2 CALLDATALOAD SWAP1 POP PUSH2 0x48B DUP2 PUSH2 0x467 JUMP JUMPDEST SWAP3 SWAP2 POP POP JUMP JUMPDEST PUSH0 PUSH1 0x20 DUP3 DUP5 SUB SLT ISZERO PUSH2 0x4A6 JUMPI PUSH2 0x4A5 PUSH2 0x463 JUMP JUMPDEST JUMPDEST PUSH0 PUSH2 0x4B3 DUP5 DUP3 DUP6 ADD PUSH2 0x47D JUMP JUMPDEST SWAP2 POP POP SWAP3 SWAP2 POP POP JUMP JUMPDEST PUSH0 PUSH20 0xFFFFFFFFFFFFFFFFFFFFFFFFFFFFFFFFFFFFFFFF DUP3 AND SWAP1 POP SWAP2 SWAP1 POP JUMP JUMPDEST PUSH0 PUSH2 0x4E5 DUP3 PUSH2 0x4BC JUMP JUMPDEST SWAP1 POP SWAP2 SWAP1 POP JUMP JUMPDEST PUSH2 0x4F5 DUP2 PUSH2 0x4DB JUMP JUMPDEST DUP3 MSTORE POP POP JUMP JUMPDEST PUSH0 PUSH1 0x20 DUP3 ADD SWAP1 POP PUSH2 0x50E PUSH0 DUP4 ADD DUP5 PUSH2 0x4EC JUMP JUMPDEST SWAP3 SWAP2 POP POP JUMP JUMPDEST PUSH2 0x51D DUP2 PUSH2 0x4DB JUMP JUMPDEST DUP2 EQ PUSH2 0x527 JUMPI PUSH0 DUP1 REVERT JUMPDEST POP JUMP JUMPDEST PUSH0 DUP2 CALLDATALOAD SWAP1 POP PUSH2 0x538 DUP2 PUSH2 0x514 JUMP JUMPDEST SWAP3 SWAP2 POP POP JUMP JUMPDEST PUSH0 PUSH1 0x20 DUP3 DUP5 SUB SLT ISZERO PUSH2 0x553 JUMPI PUSH2 0x552 PUSH2 0x463 JUMP JUMPDEST JUMPDEST PUSH0 PUSH2 0x560 DUP5 DUP3 DUP6 ADD PUSH2 0x52A JUMP JUMPDEST SWAP2 POP POP SWAP3 SWAP2 POP POP JUMP JUMPDEST PUSH0 DUP2 ISZERO ISZERO SWAP1 POP SWAP2 SWAP1 POP JUMP JUMPDEST PUSH2 0x57D DUP2 PUSH2 0x569 JUMP JUMPDEST DUP3 MSTORE POP POP JUMP JUMPDEST PUSH0 PUSH1 0x20 DUP3 ADD SWAP1 POP PUSH2 0x596 PUSH0 DUP4 ADD DUP5 PUSH2 0x574 JUMP JUMPDEST SWAP3 SWAP2 POP POP JUMP JUMPDEST PUSH0 DUP3 DUP3 MSTORE PUSH1 0x20 DUP3 ADD SWAP1 POP SWAP3 SWAP2 POP POP JUMP JUMPDEST PUSH32 0x4E6F207265656E7472616E637900000000000000000000000000000000000000 PUSH0 DUP3 ADD MSTORE POP JUMP JUMPDEST PUSH0 PUSH2 0x5E0 PUSH1 0xD DUP4 PUSH2 0x59C JUMP JUMPDEST SWAP2 POP PUSH2 0x5EB DUP3 PUSH2 0x5AC JUMP JUMPDEST PUSH1 0x20 DUP3 ADD SWAP1 POP SWAP2 SWAP1 POP JUMP JUMPDEST PUSH0 PUSH1 0x20 DUP3 ADD SWAP1 POP DUP2 DUP2 SUB PUSH0 DUP4 ADD MSTORE PUSH2 0x60D DUP2 PUSH2 0x5D4 JUMP JUMPDEST SWAP1 POP SWAP2 SWAP1 POP JUMP JUMPDEST PUSH32 0x4E487B7100000000000000000000000000000000000000000000000000000000 PUSH0 MSTORE PUSH1 0x11 PUSH1 0x4 MSTORE PUSH1 0x24 PUSH0 REVERT JUMPDEST PUSH0 PUSH2 0x64B DUP3 PUSH2 0x432 JUMP JUMPDEST SWAP2 POP PUSH2 0x656 DUP4 PUSH2 0x432 JUMP JUMPDEST SWAP3 POP DUP3 DUP3 SUB SWAP1 POP DUP2 DUP2 GT ISZERO PUSH2 0x66E JUMPI PUSH2 0x66D PUSH2 0x614 JUMP JUMPDEST JUMPDEST SWAP3 SWAP2 POP POP JUMP JUMPDEST PUSH32 0x4E6F74206F776E65720000000000000000000000000000000000000000000000 PUSH0 DUP3 ADD MSTORE POP JUMP JUMPDEST PUSH0 PUSH2 0x6A8 PUSH1 0x9 DUP4 PUSH2 0x59C JUMP JUMPDEST SWAP2 POP PUSH2 0x6B3 DUP3 PUSH2 0x674 JUMP JUMPDEST PUSH1 0x20 DUP3 ADD SWAP1 POP SWAP2 SWAP1 POP JUMP JUMPDEST PUSH0 PUSH1 0x20 DUP3 ADD SWAP1 POP DUP2 DUP2 SUB PUSH0 DUP4 ADD MSTORE PUSH2 0x6D5 DUP2 PUSH2 0x69C JUMP JUMPDEST SWAP1 POP SWAP2 SWAP1 POP JUMP JUMPDEST PUSH32 0x496E707574206973206E656761746976652E20582063616E206E6F7420626520 PUSH0 DUP3 ADD MSTORE PUSH32 0x696E637265617365642E00000000000000000000000000000000000000000000 PUSH1 0x20 DUP3 ADD MSTORE POP JUMP JUMPDEST PUSH0 PUSH2 0x736 PUSH1 0x2A DUP4 PUSH2 0x59C JUMP JUMPDEST SWAP2 POP PUSH2 0x741 DUP3 PUSH2 0x6DC JUMP JUMPDEST PUSH1 0x40 DUP3 ADD SWAP1 POP SWAP2 SWAP1 POP JUMP JUMPDEST PUSH0 PUSH1 0x20 DUP3 ADD SWAP1 POP DUP2 DUP2 SUB PUSH0 DUP4 ADD MSTORE PUSH2 0x763 DUP2 PUSH2 0x72A JUMP JUMPDEST SWAP1 POP SWAP2 SWAP1 POP JUMP JUMPDEST PUSH0 PUSH2 0x774 DUP3 PUSH2 0x432 JUMP JUMPDEST SWAP2 POP PUSH2 0x77F DUP4 PUSH2 0x432 JUMP JUMPDEST SWAP3 POP DUP3 DUP3 ADD SWAP1 POP DUP1 DUP3 GT ISZERO PUSH2 0x797 JUMPI PUSH2 0x796 PUSH2 0x614 JUMP JUMPDEST JUMPDEST SWAP3 SWAP2 POP POP JUMP JUMPDEST PUSH32 0x4E6F742076616C69642061646472657373000000000000000000000000000000 PUSH0 DUP3 ADD MSTORE POP JUMP JUMPDEST PUSH0 PUSH2 0x7D1 PUSH1 0x11 DUP4 PUSH2 0x59C JUMP JUMPDEST SWAP2 POP PUSH2 0x7DC DUP3 PUSH2 0x79D JUMP JUMPDEST PUSH1 0x20 DUP3 ADD SWAP1 POP SWAP2 SWAP1 POP JUMP JUMPDEST PUSH0 PUSH1 0x20 DUP3 ADD SWAP1 POP DUP2 DUP2 SUB PUSH0 DUP4 ADD MSTORE PUSH2 0x7FE DUP2 PUSH2 0x7C5 JUMP JUMPDEST SWAP1 POP SWAP2 SWAP1 POP JUMP INVALID LOG2 PUSH5 0x6970667358 0x22 SLT KECCAK256 0xEA 0x29 EXTCODECOPY 0xBF 0xD3 SWAP4 MSTORE BLOCKHASH 0xB1 SWAP9 0xCF ADDMOD 0xDF CHAINID CODECOPY SDIV PC DUP15 PUSH1 0x71 MUL 0xFB 0xB2 0xB3 0xE3 SWAP5 EXTCODEHASH LOG3 0xC9 PUSH6 0x105764736F6C PUSH4 0x4300081A STOP CALLER "
				},
				"gasEstimates": {
					"creation": {
						"codeDepositCost": "421400",
						"executionCost": "46824",
						"totalCost": "468224"
					},
					"external": {
						"changeOwner(address)": "26986",
						"decrement(uint256)": "infinite",
						"increaseX(uint256)": "infinite",
						"locked()": "2554",
						"owner()": "2527",
						"x()": "2403"
					}
				},
				"methodIdentifiers": {
					"changeOwner(address)": "a6f9dae1",
					"decrement(uint256)": "3a9ebefd",
					"increaseX(uint256)": "9758d20d",
					"locked()": "cf309012",
					"owner()": "8da5cb5b",
					"x()": "0c55699c"
				}
			},
			"storageLayout": {
				"storage": [
					{
						"astId": 3,
						"contract": ".learneth/ethereum/remix-workshops/5.3 Functions - Modifiers and Constructors/modifiersAndConstructors.sol:FunctionModifier",
						"label": "owner",
						"offset": 0,
						"slot": "0",
						"type": "t_address"
					},
					{
						"astId": 6,
						"contract": ".learneth/ethereum/remix-workshops/5.3 Functions - Modifiers and Constructors/modifiersAndConstructors.sol:FunctionModifier",
						"label": "x",
						"offset": 0,
						"slot": "1",
						"type": "t_uint256"
					},
					{
						"astId": 8,
						"contract": ".learneth/ethereum/remix-workshops/5.3 Functions - Modifiers and Constructors/modifiersAndConstructors.sol:FunctionModifier",
						"label": "locked",
						"offset": 0,
						"slot": "2",
						"type": "t_bool"
					}
				],
				"types": {
					"t_address": {
						"encoding": "inplace",
						"label": "address",
						"numberOfBytes": "20"
					},
					"t_bool": {
						"encoding": "inplace",
						"label": "bool",
						"numberOfBytes": "1"
					},
					"t_uint256": {
						"encoding": "inplace",
						"label": "uint256",
						"numberOfBytes": "32"
					}
				}
			},
			"userdoc": {
				"kind": "user",
				"methods": {},
				"version": 1
			}
		}
	}
}